{
	"contractName": "Soma",
	"abi": [
		{
			"constant": true,
			"inputs": [
				{
					"name": "",
					"type": "uint256"
				}
			],
			"name": "validators",
			"outputs": [
				{
					"name": "",
					"type": "address"
				}
			],
			"payable": false,
			"stateMutability": "view",
			"type": "function"
		},
		{
			"inputs": [
				{
					"name": "_validators",
					"type": "address[]"
				}
			],
			"payable": false,
			"stateMutability": "nonpayable",
			"type": "constructor"
		},
		{
			"constant": false,
			"inputs": [
				{
					"name": "_validator",
					"type": "address"
				}
			],
			"name": "AddValidator",
			"outputs": [],
			"payable": false,
			"stateMutability": "nonpayable",
			"type": "function"
		},
		{
			"constant": false,
			"inputs": [
				{
					"name": "_validator",
					"type": "address"
				}
			],
			"name": "RemoveValidator",
			"outputs": [],
			"payable": false,
			"stateMutability": "nonpayable",
			"type": "function"
		},
		{
			"constant": true,
			"inputs": [],
			"name": "getValidators",
			"outputs": [
				{
					"name": "",
					"type": "address[]"
				}
			],
			"payable": false,
			"stateMutability": "view",
			"type": "function"
		}
	],
	"bytecode": "0x608060405234801561001057600080fd5b506040516107843803806107848339810180604052610032919081019061012c565b60005b8151811015610093576000828281518110151561004e57fe5b6020908102919091018101518254600180820185556000948552929093209092018054600160a060020a031916600160a060020a039093169290921790915501610035565b50506101ba565b60006100a682516101ae565b9392505050565b6000601f820183136100be57600080fd5b81516100d16100cc8261018e565b610168565b915081818352602084019350602081019050838560208402820111156100f657600080fd5b60005b83811015610122578161010c888261009a565b84525060209283019291909101906001016100f9565b5050505092915050565b60006020828403121561013e57600080fd5b81516001604060020a0381111561015457600080fd5b610160848285016100ad565b949350505050565b6040518181016001604060020a038111828210171561018657600080fd5b604052919050565b60006001604060020a038211156101a457600080fd5b5060209081020190565b600160a060020a031690565b6105bb806101c96000396000f3006080604052600436106100615763ffffffff7c01000000000000000000000000000000000000000000000000000000006000350416631af60f72811461006657806335aa2e44146100885780636a7a7b9e146100be578063b7ab4db5146100de575b600080fd5b34801561007257600080fd5b5061008661008136600461045c565b610100565b005b34801561009457600080fd5b506100a86100a3366004610482565b61027e565b6040516100b59190610536565b60405180910390f35b3480156100ca57600080fd5b506100866100d936600461045c565b6102a6565b3480156100ea57600080fd5b506100f3610393565b6040516100b5919061054a565b60003381805b6000548110156101555782600160a060020a031660008281548110151561012957fe5b600091825260209091200154600160a060020a0316141561014d5760019150610155565b600101610106565b811515610197576040517f08c379a000000000000000000000000000000000000000000000000000000000815260040161018e9061055b565b60405180910390fd5b6000546001106101a657600080fd5b600093505b6000548410156102775784600160a060020a03166000858154811015156101ce57fe5b600091825260209091200154600160a060020a0316141561026c576000805460001981019081106101fb57fe5b60009182526020822001548154600160a060020a0390911691908690811061021f57fe5b60009182526020822001805473ffffffffffffffffffffffffffffffffffffffff1916600160a060020a0393909316929092179091558054906102669060001983016103f6565b50610277565b6001909301926101ab565b5050505050565b600080548290811061028c57fe5b600091825260209091200154600160a060020a0316905081565b336000805b6000548110156102fa5782600160a060020a03166000828154811015156102ce57fe5b600091825260209091200154600160a060020a031614156102f257600191506102fa565b6001016102ab565b811515610333576040517f08c379a000000000000000000000000000000000000000000000000000000000815260040161018e9061055b565b5050600080546001810182559080527f290decd9548b62a8d60345a988386fc84ba6bc95484008f6362f93160ef3e56301805473ffffffffffffffffffffffffffffffffffffffff1916600160a060020a03939093169290921790915550565b606060008054806020026020016040519081016040528092919081815260200182805480156103eb57602002820191906000526020600020905b8154600160a060020a031681526001909101906020018083116103cd575b505050505090505b90565b81548183558181111561041a5760008381526020902061041a91810190830161041f565b505050565b6103f391905b808211156104395760008155600101610425565b5090565b60006104498235610575565b9392505050565b600061044982356103f3565b60006020828403121561046e57600080fd5b600061047a848461043d565b949350505050565b60006020828403121561049457600080fd5b600061047a8484610450565b6104a981610575565b82525050565b60006104ba82610571565b8084526020840193506104cc8361056b565b60005b828110156104fc576104e28683516104a0565b6104eb8261056b565b6020969096019591506001016104cf565b5093949350505050565b601881527f566f746572206973206e6f7420612076616c696461746f720000000000000000602082015260400190565b6020810161054482846104a0565b92915050565b6020808252810161044981846104af565b6020808252810161054481610506565b60200190565b5190565b600160a060020a0316905600a265627a7a72305820cbbb88413a16bb9c8af5b44ad9e29bfeaf771078f88bf74d9d39079551f76b3e6c6578706572696d656e74616cf50037",
	"source": "pragma solidity ^0.4.23;\npragma experimental ABIEncoderV2;\n\n/* Soma.sol\n*\n*  Soma is a smart contract implementation of Clique consensus, see EIP 225,\n*  however validators no longer vote for proposers to be added or removed through the Soma contract.\n*/\n\ncontract Soma {\n  address[] public validators;\n\n  constructor(address[] _validators) public {\n    for (uint256 i = 0; i < _validators.length; i++) {\n      validators.push(_validators[i]);\n    }\n\n  }\n\n  function AddValidator(address _validator) public onlyValidators(msg.sender) {\n    //Just need to make sure we're duplicating the entry\n    validators.push(_validator);\n  }\n\n  function RemoveValidator(\n    address _validator\n  ) public onlyValidators(msg.sender) {\n    require(validators.length > 1);\n\n    for (uint256 i = 0; i < validators.length; i++) {\n      if (validators[i] == _validator) {\n        validators[i] = validators[validators.length - 1];\n        validators.length--;\n        break;\n      }\n    }\n\n  }\n\n  /*\n    ========================================================================================================================\n\n        Getters - extra values we may wish to return\n\n    ========================================================================================================================\n    */\n\n  /*\n    * getValidators\n    *\n    * Returns the macro validator list\n    */\n\n  function getValidators() public view returns(address[]) {\n    return validators;\n  }\n\n  /*\n    ========================================================================================================================\n\n        Modifiers\n\n    ========================================================================================================================\n    */\n\n  /*\n    * onlyValidators\n    *\n    * Modifier that checks if the voter is an active validator\n    */\n\n  modifier onlyValidators(address _voter) {\n    bool present = false;\n    for (uint256 i = 0; i < validators.length; i++) {\n      if (validators[i] == _voter) {\n        present = true;\n        break;\n      }\n    }\n    require(present, \"Voter is not a validator\");\n    _;\n  }\n\n}\n",
	"sourcePath": "/home/user97/repos/validator-dapp/contracts/Soma.sol",
	"compiler": {
		"name": "solc",
		"version": "0.4.24+commit.e67f0147.Emscripten.clang"
	},
	"schemaVersion": "2.0.1",
	"updatedAt": "2019-02-21T15:22:15.518Z"
}